:020000040800F2
:100000000005002001010008250100082701000863
:10001000290100082B0100082D0100080000000044
:100020000000000000000000000000002F01000898
:10003000310100080000000033010008350100080C
:1000400037010008370100083701000837010008B0
:1000500037010008370100083701000837010008A0
:100060003701000837010008370100083701000890
:100070003701000837010008370100083701000880
:100080003701000837010008370100083701000870
:100090003701000837010008370100083701000860
:1000A0003701000837010008370100083701000850
:1000B0003701000837010008370100083701000840
:1000C0003701000837010008370100083701000830
:1000D0003701000837010008370100083701000820
:1000E000370100083701000837010008DFF80CD09D
:1000F00000F02CF800480047F5010008000500203A
:100100000D488047DFF83400016841F4E0210160C8
:10011000BFF34F8FDFF82800DFF8281001600A488E
:1001200000477047FEE7FEE7FEE7FEE7FEE7FEE773
:10013000FEE7FEE7FEE7FEE72301000824ED00E00E
:100140000CED00E00003FA05ED000008064C074D39
:1001500006E0E06840F0010394E807009847103497
:10016000AC42F6D3FFF7C6FF1802000828020008C9
:1001700070B44FF0000301FB03FC4FF000040CF0DF
:100180003F0C32F91C5030F9136005FB064401FBAB
:1001900003FC03F10103402BF1DB204670BC7047E8
:1001A00070B50A4A01B4FFF7E3FF8446C0FB003490
:1001B00001BC074A01B4FFF7DBFF8446C0FB0056D1
:1001C00001BC04EB0600BDE870407047A8020008BF
:1001D0002803000802E008C8121F08C1002AFAD14B
:1001E00070477047002001E001C1121F002AFBD1B7
:1001F00070470000002407E021460548FFF7D0FFC4
:10020000044941F82400641C402CF5DB00BFFEE7E4
:100210002802000800000020A803000800000020B9
:1002200000050000E4010008FF0FF60FD90FA80F2A
:10023000640F0E0FA70E2F0EA80D130D720CC50B19
:10024000100B530A9009C908000837077006AD055E
:10025000F0043B048E03ED025802D1015901F20073
:100260009C00580027000A0000000A0027005800E0
:100270009C00F2005901D1015802ED028E033B04AB
:10028000F004AD05700637070008C9089009530A45
:10029000100BC50B720C130DA80D2F0EA70E0E0F11
:1002A000640FA80FD90FF60FFF7F627F8A7D7D7ADA
:1002B0004276E3706E6AF262825A34511D47573CAF
:1002C000FC302825F9188C0C000074F307E7D8DA05
:1002D00004CFA9C3E3B8CCAE7EA50E9D92951D8F29
:1002E000BE89838576829E8000809E80768283850B
:1002F000BE891D8F92950E9D7EA5CCAEE3B8A9C395
:1003000004CFD8DA07E774F300008C0CF91828251D
:10031000FC30573C1D473451825AF2626E6AE370DA
:1003200042767D7A8A7D627F00008C0CF918282540
:10033000FC30573C1D473451825AF2626E6AE370BA
:1003400042767D7A8A7D627FFF7F627F8A7D7D7AB9
:100350004276E3706E6AF262825A34511D47573C0E
:10036000FC302825F9188C0C000074F307E7D8DA64
:1003700004CFA9C3E3B8CCAE7EA50E9D92951D8F88
:10038000BE89838576829E8000809E80768283856A
:10039000BE891D8F92950E9D7EA5CCAEE3B8A9C3F4
:0803A00004CFD8DA07E774F37B
:04000005080000ED02
:00000001FF
