:020000040800F2
:100000000005002001010008250100082701000863
:10001000290100082B0100082D0100080000000044
:100020000000000000000000000000002F01000898
:10003000310100080000000033010008350100080C
:1000400037010008370100083701000837010008B0
:1000500037010008370100083701000837010008A0
:100060003701000837010008370100083701000890
:100070003701000837010008370100083701000880
:100080003701000837010008370100083701000870
:100090003701000837010008370100083701000860
:1000A0003701000837010008370100083701000850
:1000B0003701000837010008370100083701000840
:1000C0003701000837010008370100083701000830
:1000D0003701000837010008370100083701000820
:1000E000370100083701000837010008DFF80CD09D
:1000F00000F02CF800480047F90100080005002036
:100100000D488047DFF83400016841F4E0210160C8
:10011000BFF34F8FDFF82800DFF8281001600A488E
:1001200000477047FEE7FEE7FEE7FEE7FEE7FEE773
:10013000FEE7FEE7FEE7FEE72301000824ED00E00E
:100140000CED00E00003FA05ED000008064C074D39
:1001500006E0E06840F0010394E807009847103497
:10016000AC42F6D3FFF7C6FF1C0200082C020008C1
:1001700070B44FF000034FF0000C01FB03FC4FF094
:10018000000401FB03FC0CF03F0C32F91C5030F969
:10019000136005FB064403F10103402BF1DB20460D
:1001A00070BC704770B50A4A01B4FFF7E1FF84469E
:1001B00080FB003401BC074A01B4FFF7D9FF844635
:1001C00080FB005601BC04EB0600BDE870407047A0
:1001D000AC0200082C03000802E008C8121F08C186
:1001E000002AFAD170477047002001E001C1121FB8
:1001F000002AFBD170470000002407E02146054893
:10020000FFF7D0FF044941F82400641C402CF5DBC3
:1002100000BFFEE72C02000800000020AC0300082D
:100220000000002000050000E80100086E06BE0B7B
:1002300046048209A1092A04CA0B82064A06EC0B6D
:100240002F047109CE090204D00BA3061A06080C6C
:100250003B044609F909F703B30BD206FB05000C72
:1002600064041909080A1104840BF506FF05D90B6B
:1002700092040609F3093F045E0BF6062206AA0B58
:10028000AA041709C6096704580BD50652068F0B36
:100290009D0442099B097204750BA6067106970B13
:1002A00074046E098C095804A40B8406FF7F627FD6
:1002B0008A7D7D7A4276E3706E6AF262825A3451A8
:1002C0001D47573CFC302825F9188C0C000074F3AE
:1002D00007E7D8DA04CFA9C3E3B8CCAE7EA50E9D5C
:1002E00092951D8FBE89838576829E8000809E8038
:1002F00076828385BE891D8F92950E9D7EA5CCAE9C
:10030000E3B8A9C304CFD8DA07E774F300008C0C74
:10031000F9182825FC30573C1D473451825AF262A7
:100320006E6AE37042767D7A8A7D627F00008C0C73
:10033000F9182825FC30573C1D473451825AF26287
:100340006E6AE37042767D7A8A7D627FFF7F627F8C
:100350008A7D7D7A4276E3706E6AF262825A345107
:100360001D47573CFC302825F9188C0C000074F30D
:1003700007E7D8DA04CFA9C3E3B8CCAE7EA50E9DBB
:1003800092951D8FBE89838576829E8000809E8097
:1003900076828385BE891D8F92950E9D7EA5CCAEFB
:0C03A000E3B8A9C304CFD8DA07E774F370
:04000005080000ED02
:00000001FF
