:020000040800F2
:100000000004002001010008250100082701000864
:10001000290100082B0100082D0100080000000044
:100020000000000000000000000000002F01000898
:10003000310100080000000033010008350100080C
:1000400037010008370100083701000837010008B0
:1000500037010008370100083701000837010008A0
:100060003701000837010008370100083701000890
:100070003701000837010008370100083701000880
:100080003701000837010008370100083701000870
:100090003701000837010008370100083701000860
:1000A0003701000837010008370100083701000850
:1000B0003701000837010008370100083701000840
:1000C0003701000837010008370100083701000830
:1000D0003701000837010008370100083701000820
:1000E000370100083701000837010008DFF80CD09D
:1000F00000F02CF8004800479D0100080004002093
:100100000D488047DFF83400016841F4E0210160C8
:10011000BFF34F8FDFF82800DFF8281001600A488E
:1001200000477047FEE7FEE7FEE7FEE7FEE7FEE773
:10013000FEE7FEE7FEE7FEE72301000824ED00E00E
:100140000CED00E00003FA05ED000008064C074D39
:1001500006E0E06840F0010394E807009847103497
:10016000AC42F6D3FFF7C6FFE0010008F00100083B
:1001700032F91130B0F9000000FB03F0704702E0E3
:1001800008C8121F08C1002AFAD170477047002022
:1001900001E001C1121F002AFBD170474025002653
:1001A0000127002412E004FB07F090FBF5F105FBAA
:1001B00011000FFA80F8084901EB4400074A414654
:1001C000FFF7D6FF304406B2601C04B2681EA0429E
:1001D000E9DC00BFFEE70000F00100087002000843
:1001E0007003000800000020000400008E010008D9
:1001F000FF0FF60FD90FA80F640F0E0FA70E2F0ECB
:10020000A80D130D720CC50B100B530A9009C908E9
:10021000000837077006AD05F0043B048E03ED02BD
:100220005802D1015901F2009C00580027000A0031
:1002300000000A00270058009C00F2005901D1017B
:100240005802ED028E033B04F004AD05700637073B
:100250000008C9089009530A100BC50B720C130D46
:10026000A80D2F0EA70E0E0F640FA80FD90FF60FB3
:10027000FF7F627F8A7D7D7A4276E3706E6AF262EA
:10028000825A34511D47573CFC302825F9188C0CF4
:10029000000074F307E7D8DA04CFA9C3E3B8CCAE03
:1002A0007EA50E9D92951D8FBE89838576829E8048
:1002B00000809E8076828385BE891D8F92950E9DDB
:1002C0007EA5CCAEE3B8A9C304CFD8DA07E774F3B0
:1002D00000008C0CF9182825FC30573C1D47345180
:1002E000825AF2626E6AE37042767D7A8A7D627F1C
:1002F00000008C0CF9182825FC30573C1D47345160
:10030000825AF2626E6AE37042767D7A8A7D627FFB
:10031000FF7F627F8A7D7D7A4276E3706E6AF26249
:10032000825A34511D47573CFC302825F9188C0C53
:10033000000074F307E7D8DA04CFA9C3E3B8CCAE62
:100340007EA50E9D92951D8FBE89838576829E80A7
:1003500000809E8076828385BE891D8F92950E9D3A
:100360007EA5CCAEE3B8A9C304CFD8DA07E774F30F
:04000005080000ED02
:00000001FF
