:020000040800F2
:100000000006002001010008250100082701000862
:10001000290100082B0100082D0100080000000044
:100020000000000000000000000000002F01000898
:10003000310100080000000033010008350100080C
:1000400037010008370100083701000837010008B0
:1000500037010008370100083701000837010008A0
:100060003701000837010008370100083701000890
:100070003701000837010008370100083701000880
:100080003701000837010008370100083701000870
:100090003701000837010008370100083701000860
:1000A0003701000837010008370100083701000850
:1000B0003701000837010008370100083701000840
:1000C0003701000837010008370100083701000830
:1000D0003701000837010008370100083701000820
:1000E000370100083701000837010008DFF80CD09D
:1000F00000F02CF800480047BD0100080006002071
:100100000D488047DFF83400016841F4E0210160C8
:10011000BFF34F8FDFF82800DFF8281001600A488E
:1001200000477047FEE7FEE7FEE7FEE7FEE7FEE773
:10013000FEE7FEE7FEE7FEE72301000824ED00E00E
:100140000CED00E00003FA05ED000008064C074D39
:1001500006E0E06840F0010394E807009847103497
:10016000AC42F6D3FFF7C6FF0002000810020008F9
:1001700070B54FF0000301FB03FC4FF000040CF0DE
:10018000400C32F91C5030F9136005FB064403F1B2
:100190000103402BF3DB2046BDE87040704702E0CE
:1001A00008C8121F08C1002AFAD170477047002002
:1001B00001E001C1121F002AFBD17047002410E0AA
:1001C0000A4A21460A48FFF7D3FF0A4941F82400AA
:1001D000094A21460648FFF7CBFF084941F82400A9
:1001E000641C402CECDB00BFFEE70000900200081E
:1001F0001002000800000020100300080001002089
:10020000900300080000002000060000AE01000876
:10021000FF0FF60FD90FA80F640F0E0FA70E2F0EAA
:10022000A80D130D720CC50B100B530A9009C908C9
:10023000000837077006AD05F0043B048E03ED029D
:100240005802D1015901F2009C00580027000A0011
:1002500000000A00270058009C00F2005901D1015B
:100260005802ED028E033B04F004AD05700637071B
:100270000008C9089009530A100BC50B720C130D26
:10028000A80D2F0EA70E0E0F640FA80FD90FF60F93
:10029000FF7F627F8A7D7D7A4276E3706E6AF262CA
:1002A000825A34511D47573CFC302825F9188C0CD4
:1002B000000074F307E7D8DA04CFA9C3E3B8CCAEE3
:1002C0007EA50E9D92951D8FBE89838576829E8028
:1002D00000809E8076828385BE891D8F92950E9DBB
:1002E0007EA5CCAEE3B8A9C304CFD8DA07E774F390
:1002F00000008C0CF9182825FC30573C1D47345160
:10030000825AF2626E6AE37042767D7A8A7D627FFB
:1003100000008C0CF9182825FC30573C1D4734513F
:10032000825AF2626E6AE37042767D7A8A7D627FDB
:10033000FF7F627F8A7D7D7A4276E3706E6AF26229
:10034000825A34511D47573CFC302825F9188C0C33
:10035000000074F307E7D8DA04CFA9C3E3B8CCAE42
:100360007EA50E9D92951D8FBE89838576829E8087
:1003700000809E8076828385BE891D8F92950E9D1A
:100380007EA5CCAEE3B8A9C304CFD8DA07E774F3EF
:04000005080000ED02
:00000001FF
